{"abi":[{"type":"function","name":"ANGLES_IN_CYCLE","inputs":[],"outputs":[{"name":"","type":"uint16","internalType":"uint16"}],"stateMutability":"view"},{"type":"function","name":"INDEX_OFFSET","inputs":[],"outputs":[{"name":"","type":"uint256","internalType":"uint256"}],"stateMutability":"view"},{"type":"function","name":"INDEX_WIDTH","inputs":[],"outputs":[{"name":"","type":"uint256","internalType":"uint256"}],"stateMutability":"view"},{"type":"function","name":"INTERP_OFFSET","inputs":[],"outputs":[{"name":"","type":"uint256","internalType":"uint256"}],"stateMutability":"view"},{"type":"function","name":"INTERP_WIDTH","inputs":[],"outputs":[{"name":"","type":"uint256","internalType":"uint256"}],"stateMutability":"view"},{"type":"function","name":"QUADRANT_HIGH_MASK","inputs":[],"outputs":[{"name":"","type":"uint16","internalType":"uint16"}],"stateMutability":"view"},{"type":"function","name":"QUADRANT_LOW_MASK","inputs":[],"outputs":[{"name":"","type":"uint16","internalType":"uint16"}],"stateMutability":"view"},{"type":"function","name":"SINE_TABLE_SIZE","inputs":[],"outputs":[{"name":"","type":"uint256","internalType":"uint256"}],"stateMutability":"view"},{"type":"function","name":"cos","inputs":[{"name":"_angle","type":"uint16","internalType":"uint16"}],"outputs":[{"name":"","type":"int256","internalType":"int256"}],"stateMutability":"pure"},{"type":"function","name":"entry_bytes","inputs":[],"outputs":[{"name":"","type":"uint8","internalType":"uint8"}],"stateMutability":"view"},{"type":"function","name":"sin","inputs":[{"name":"_angle","type":"uint16","internalType":"uint16"}],"outputs":[{"name":"","type":"int256","internalType":"int256"}],"stateMutability":"pure"},{"type":"function","name":"sin_table","inputs":[],"outputs":[{"name":"","type":"bytes","internalType":"bytes"}],"stateMutability":"view"}],"bytecode":{"object":"0x61069d610039600b82828239805160001a607314602c57634e487b7160e01b600052600060045260246000fd5b30600052607381538281f3fe73000000000000000000000000000000000000000030146080604052600436106100be5760003560e01c806387c345261161007b57806387c3452614610148578063b43ff0f014610151578063bfab76af14610159578063edb7be4814610161578063ee88683a1461016a578063f985779c1461017257600080fd5b806316d9c4d5146100c3578063564a6b94146100e15780635cdf7496146101025780635db645021461011e578063725163ef1461012657806372c054b514610140575b600080fd5b6100cb610185565b6040516100d891906103b1565b60405180910390f35b6100f46100ef3660046103ff565b6101a1565b6040519081526020016100d8565b61010b61400081565b60405161ffff90911681526020016100d8565b6100f4600881565b61012e600281565b60405160ff90911681526020016100d8565b6100f4601081565b61010b61100081565b6100f46101fd565b6100f4600481565b61010b61200081565b6100f461020c565b6100f46101803660046103ff565b610224565b6040518060600160405280602281526020016106466022913981565b60006101b1611000614000610440565b61ffff168261ffff16106101df576140006101ce6110008461045a565b6101d89190610440565b91506101ee565b6101eb6110008361045a565b91505b6101f782610224565b92915050565b6102096004600c610474565b81565b600861021a6004600c610474565b6102099190610474565b60008061024d61ffff841660088061023e6004600c610474565b6102489190610474565b610337565b9050600061026661ffff8516600461024881600c610474565b90506110008416156120008516151581610294578261028760016010610474565b6102919190610474565b92505b600061029f8461036e565b61ffff16905060006102ba6102b5866001610487565b61036e565b61ffff16905060006102ce60086002610581565b876102d98585610474565b6102e3919061058d565b6102ed91906105a4565b9050600085156103085761030182856105c6565b9050610315565b61031282846105ee565b90505b841561032a5761032760001982610615565b90505b9998505050505050505050565b60006001610346846002610581565b6103509190610474565b61035b836002610581565b61036590866105a4565b16949350505050565b6000806040518060600160405280602281526020016106466022913990506000600261039b856001610487565b6103a5919061058d565b91909101519392505050565b602081526000825180602084015260005b818110156103df57602081860181015160408684010152016103c2565b506000604082850101526040601f19601f83011684010191505092915050565b60006020828403121561041157600080fd5b813561ffff8116811461042357600080fd5b9392505050565b634e487b7160e01b600052601160045260246000fd5b61ffff82811682821603908111156101f7576101f761042a565b61ffff81811683821601908111156101f7576101f761042a565b818103818111156101f7576101f761042a565b808201808211156101f7576101f761042a565b6001815b60018411156104d5578085048111156104b9576104b961042a565b60018416156104c757908102905b60019390931c92800261049e565b935093915050565b6000826104ec575060016101f7565b816104f9575060006101f7565b816001811461050f576002811461051957610535565b60019150506101f7565b60ff84111561052a5761052a61042a565b50506001821b6101f7565b5060208310610133831016604e8410600b8410161715610558575081810a6101f7565b610565600019848461049a565b80600019048211156105795761057961042a565b029392505050565b600061042383836104dd565b80820281158282048414176101f7576101f761042a565b6000826105c157634e487b7160e01b600052601260045260246000fd5b500490565b80820182811260008312801582168215821617156105e6576105e661042a565b505092915050565b818103600083128015838313168383128216171561060e5761060e61042a565b5092915050565b80820260008212600160ff1b841416156106315761063161042a565b81810583148215176101f7576101f761042a56fe00000c8c18f9252830fb3c56471c51335a8262f16a6d70e276417a7c7d897f617fffa2646970667358221220e502375434de71c0cb0ed53b5289f2cbd62e97ee6cfda216ab16aa1b7b401a6364736f6c634300081a0033","linkReferences":{}},"methodIdentifiers":{"ANGLES_IN_CYCLE()":"5cdf7496","INDEX_OFFSET()":"b43ff0f0","INDEX_WIDTH()":"bfab76af","INTERP_OFFSET()":"ee88683a","INTERP_WIDTH()":"5db64502","QUADRANT_HIGH_MASK()":"edb7be48","QUADRANT_LOW_MASK()":"87c34526","SINE_TABLE_SIZE()":"72c054b5","cos(uint16)":"564a6b94","entry_bytes()":"725163ef","sin(uint16)":"f985779c","sin_table()":"16d9c4d5"},"id":26}