{"abi":[{"type":"function","name":"area","inputs":[{"name":"_coordinates","type":"int256[2][]","internalType":"int256[2][]"}],"outputs":[{"name":"area_","type":"uint256","internalType":"uint256"}],"stateMutability":"pure"},{"type":"function","name":"bearingFromAzimuthalEquidistantProjectedPoints","inputs":[{"name":"ptA","type":"uint256[2]","internalType":"uint256[2]"},{"name":"ptB","type":"uint256[2]","internalType":"uint256[2]"}],"outputs":[{"name":"","type":"uint256","internalType":"uint256"}],"stateMutability":"view"},{"type":"function","name":"boundingBox","inputs":[{"name":"_coordinates","type":"int256[2][]","internalType":"int256[2][]"}],"outputs":[{"name":"","type":"int256[2][2]","internalType":"int256[2][2]"}],"stateMutability":"pure"},{"type":"function","name":"boundingBoxBuffer","inputs":[{"name":"_point","type":"int256[2]","internalType":"int256[2]"},{"name":"_buffer","type":"int256","internalType":"int256"}],"outputs":[{"name":"","type":"int256[2][2]","internalType":"int256[2][2]"}],"stateMutability":"pure"},{"type":"function","name":"centroid","inputs":[{"name":"_coordinates","type":"int256[2][]","internalType":"int256[2][]"}],"outputs":[{"name":"","type":"int256[2]","internalType":"int256[2]"}],"stateMutability":"pure"},{"type":"function","name":"cosDegrees","inputs":[{"name":"_degrees","type":"uint256","internalType":"uint256"}],"outputs":[{"name":"","type":"int256","internalType":"int256"}],"stateMutability":"pure"},{"type":"function","name":"cosNanodegrees","inputs":[{"name":"_nanodegrees","type":"uint256","internalType":"uint256"}],"outputs":[{"name":"","type":"int256","internalType":"int256"}],"stateMutability":"pure"},{"type":"function","name":"degreesToNanoradians","inputs":[{"name":"_degrees","type":"uint256","internalType":"uint256"}],"outputs":[{"name":"radians_","type":"uint256","internalType":"uint256"}],"stateMutability":"pure"},{"type":"function","name":"distance","inputs":[{"name":"ptA","type":"int256[2]","internalType":"int256[2]"},{"name":"ptB","type":"int256[2]","internalType":"int256[2]"}],"outputs":[{"name":"distanceNanometers_","type":"uint256","internalType":"uint256"}],"stateMutability":"pure"},{"type":"function","name":"distanceBetweenAzimuthalEquidistantProjectedPoints","inputs":[{"name":"ptA","type":"uint256[2]","internalType":"uint256[2]"},{"name":"ptB","type":"uint256[2]","internalType":"uint256[2]"}],"outputs":[{"name":"","type":"uint256","internalType":"uint256"}],"stateMutability":"view"},{"type":"function","name":"earthNanodegreesToNanometers","inputs":[{"name":"_nanodegrees","type":"uint256","internalType":"uint256"}],"outputs":[{"name":"nanometers_","type":"uint256","internalType":"uint256"}],"stateMutability":"pure"},{"type":"function","name":"earthNanoradiansToNanometers","inputs":[{"name":"_nanoradians","type":"uint256","internalType":"uint256"}],"outputs":[{"name":"nanometers_","type":"uint256","internalType":"uint256"}],"stateMutability":"pure"},{"type":"function","name":"earthRadius","inputs":[],"outputs":[{"name":"","type":"uint256","internalType":"uint256"}],"stateMutability":"view"},{"type":"function","name":"isLine","inputs":[{"name":"_coordinates","type":"int256[2][]","internalType":"int256[2][]"}],"outputs":[{"name":"","type":"bool","internalType":"bool"}],"stateMutability":"pure"},{"type":"function","name":"isPolygon","inputs":[{"name":"_coordinates","type":"int256[2][]","internalType":"int256[2][]"}],"outputs":[{"name":"","type":"bool","internalType":"bool"}],"stateMutability":"pure"},{"type":"function","name":"length","inputs":[{"name":"_coordinates","type":"int256[2][]","internalType":"int256[2][]"}],"outputs":[{"name":"length_","type":"uint256","internalType":"uint256"}],"stateMutability":"pure"},{"type":"function","name":"nanodegreesToNanoradians","inputs":[{"name":"_nanodegrees","type":"uint256","internalType":"uint256"}],"outputs":[{"name":"radians_","type":"uint256","internalType":"uint256"}],"stateMutability":"pure"},{"type":"function","name":"nanoradiansToDegrees","inputs":[{"name":"_nanoradians","type":"uint256","internalType":"uint256"}],"outputs":[{"name":"degrees_","type":"uint256","internalType":"uint256"}],"stateMutability":"pure"},{"type":"function","name":"perimeter","inputs":[{"name":"_coordinates","type":"int256[2][]","internalType":"int256[2][]"}],"outputs":[{"name":"perimeter_","type":"uint256","internalType":"uint256"}],"stateMutability":"pure"},{"type":"function","name":"piScaled","inputs":[],"outputs":[{"name":"","type":"uint256","internalType":"uint256"}],"stateMutability":"view"},{"type":"function","name":"pointInBbox","inputs":[{"name":"_point","type":"int256[2]","internalType":"int256[2]"},{"name":"_bbox","type":"int256[2][2]","internalType":"int256[2][2]"}],"outputs":[{"name":"ptInsideBbox_","type":"bool","internalType":"bool"}],"stateMutability":"pure"},{"type":"function","name":"pointInPolygon","inputs":[{"name":"_point","type":"int256[2]","internalType":"int256[2]"},{"name":"_polygon","type":"int256[]","internalType":"int256[]"}],"outputs":[{"name":"","type":"bool","internalType":"bool"}],"stateMutability":"pure"},{"type":"function","name":"sinDegrees","inputs":[{"name":"_degrees","type":"uint256","internalType":"uint256"}],"outputs":[{"name":"","type":"int256","internalType":"int256"}],"stateMutability":"pure"},{"type":"function","name":"sinNanodegrees","inputs":[{"name":"_nanodegrees","type":"uint256","internalType":"uint256"}],"outputs":[{"name":"","type":"int256","internalType":"int256"}],"stateMutability":"pure"}],"bytecode":{"object":"0x6115d2610039600b82828239805160001a607314602c57634e487b7160e01b600052600060045260246000fd5b30600052607381538281f3fe73000000000000000000000000000000000000000030146080604052600436106101625760003560e01c806382241cd6116100cd578063c1dcf73911610086578063c1dcf739146102d0578063d818e7c4146102e3578063df5deb7c146102f6578063e16e36d114610309578063f9887d5a1461031c578063fe2a1a671461033c57600080fd5b806382241cd61461025e578063883b361d14610271578063895c8db614610284578063a297e9c614610297578063b0293635146102aa578063bfb8fe5a146102bd57600080fd5b8063365bc9ac1161011f578063365bc9ac146101ec5780634256e4e4146101f75780634468e9f01461021757806353f096881461022a5780635a31f8701461023d5780636be8b29a1461025057600080fd5b8063033e0a94146101675780631a50fe5e14610167578063206317c51461019057806326d6adf1146101b35780633148cf6b146101c657806333e6adf7146101d9575b600080fd5b61017d610175366004611144565b600092915050565b6040519081526020015b60405180910390f35b6101a361019e36600461119d565b61034f565b6040519015158152602001610187565b61017d6101c136600461119d565b61045b565b61017d6101d4366004611242565b6105aa565b61017d6101e7366004611242565b6105c3565b61017d63bb40e64e81565b61020a61020536600461119d565b6105d6565b604051610187919061125b565b61017d610225366004611242565b61080c565b61017d610238366004611242565b61081f565b61017d61024b366004611242565b6108c6565b61017d6616a2661462880081565b61017d61026c36600461119d565b610930565b61017d61027f366004611242565b6109c6565b61017d61029236600461119d565b6109d4565b61017d6102a5366004611144565b610a30565b61017d6102b8366004611242565b610af0565b61017d6102cb366004611242565b610b12565b61017d6102de366004611242565b610b55565b6101a36102f136600461119d565b610b67565b6101a36103043660046112b4565b610c68565b6101a3610317366004611332565b610ce4565b61032f61032a36600461119d565b610e34565b60405161018791906113dc565b61020a61034a366004611404565b610f30565b805160009060018111801561044457508261036b600183611445565b8151811061037b5761037b611458565b602002602001015160006002811061039557610395611458565b6020020151836000815181106103ad576103ad611458565b60200260200101516000600281106103c7576103c7611458565b60200201511415806104445750826103e0600183611445565b815181106103f0576103f0611458565b602002602001015160016002811061040a5761040a611458565b60200201518360008151811061042257610422611458565b602002602001015160016002811061043c5761043c611458565b602002015114155b156104525750600192915050565b50600092915050565b600061046682610b67565b151560011461047457600080fd5b81516000805b828110156105965760008561049083600161146e565b815181106104a0576104a0611458565b60200260200101516001600281106104ba576104ba611458565b60200201518683815181106104d1576104d1611458565b60200260200101516000600281106104eb576104eb611458565b60200201516104fa9190611481565b905060008661050a84600161146e565b8151811061051a5761051a611458565b602002602001015160006002811061053457610534611458565b602002015187848151811061054b5761054b611458565b602002602001015160016002811061056557610565611458565b60200201516105749190611481565b905061058081836114b1565b61058a90856114d8565b9350505060010161047a565b506105a2600282611516565b949350505050565b60006105bd61024b633b9aca0084611544565b92915050565b60006105bd6102cb83633b9aca00611558565b6105de611060565b81516001036105ec57600080fd5b81516429e8d60800906414f46b0400906429e8d607ff19906414f46b03ff199060005b818110156107cf578588828151811061062a5761062a611458565b602002602001015160006002811061064457610644611458565b602002015112156106835787818151811061066157610661611458565b602002602001015160006002811061067b5761067b611458565b602002015195505b8488828151811061069657610696611458565b60200260200101516001600281106106b0576106b0611458565b602002015112156106ef578781815181106106cd576106cd611458565b60200260200101516001600281106106e7576106e7611458565b602002015194505b8388828151811061070257610702611458565b602002602001015160006002811061071c5761071c611458565b6020020151131561075b5787818151811061073957610739611458565b602002602001015160006002811061075357610753611458565b602002015193505b8388828151811061076e5761076e611458565b602002602001015160016002811061078857610788611458565b602002015113156107c7578781815181106107a5576107a5611458565b60200260200101516001600281106107bf576107bf611458565b602002015192505b60010161060f565b5050604080516080810182528082019586526060810194909452938352835180850190945290835260208381019190915281019190915292915050565b60006105bd610238633b9aca0084611544565b60008061082e6101688461156f565b9050600061016861084183614000611558565b61084b9190611544565b6040516315929ae560e21b815261ffff8216600482015290915073__$1ae86baa7758bc5632a72502bd8b9697fa$__9063564a6b94906024015b602060405180830381865af41580156108a2573d6000803e3d6000fd5b505050506040513d601f19601f820116820180604052508101906105a29190611583565b6000806108d56101688461156f565b905060006101686108e883614000611558565b6108f29190611544565b604051633e615de760e21b815261ffff8216600482015290915073__$1ae86baa7758bc5632a72502bd8b9697fa$__9063f985779c90602401610885565b600061093b82610b67565b151560011461094957600080fd5b508051600090815b61095c600183611445565b8110156109bf576109ab84828151811061097857610978611458565b60200260200101518583600161098e919061146e565b8151811061099e5761099e611458565b6020026020010151610a30565b6109b5908461146e565b9250600101610951565b5050919050565b60006105bd6102b883610b12565b60006109df8261034f565b15156001146109ed57600080fd5b508051600090815b610a00600183611445565b8110156109bf57610a1c84828151811061097857610978611458565b610a26908461146e565b92506001016109f5565b8151602080840151835191840151600093929084610a4e85846114b1565b90506000610a5c85846114b1565b90506000610a86610a6d8380611481565b610a778580611481565b610a8191906114d8565b610fe9565b90506505cb5d311e006000633b9aca0063bb40e64e60b4610aa78684611558565b610ab19190611544565b610abb9190611558565b610ac59190611544565b9050633b9aca00610ad68383611558565b610ae09190611544565b9c9b505050505050505050505050565b6000633b9aca00610b086616a2661462880084611558565b6105bd9190611544565b600080610b246453d1ac10008461156f565b9050633b9aca00610b3a60b463bb40e64e611544565b610b449083611558565b610b4e9190611544565b9392505050565b600063bb40e64e610b088360b4611558565b8051600090600281118015610be6575082610b83600183611445565b81518110610b9357610b93611458565b6020026020010151600060028110610bad57610bad611458565b602002015183600081518110610bc557610bc5611458565b6020026020010151600060028110610bdf57610bdf611458565b6020020151145b8015610444575082610bf9600183611445565b81518110610c0957610c09611458565b6020026020010151600160028110610c2357610c23611458565b602002015183600081518110610c3b57610c3b611458565b6020026020010151600160028110610c5557610c55611458565b6020020151036104525750600192915050565b602081015151815151600091138015610c8d5750602080830151810151835190910151125b610c9657600080fd5b8151518351138015610cad57508151602001518351135b8015610cc157506020808301515190840151125b8015610cd7575060208083015181015190840151125b15610452575060016105bd565b81516020830151825160009291908390610d0090600290611445565b85519091506000805b610d14600184611445565b811015610e28576000888281518110610d2f57610d2f611458565b60200260200101519050600089836001610d49919061146e565b81518110610d5957610d59611458565b6020026020010151905060008a8781518110610d7757610d77611458565b6020026020010151905060008b886001610d91919061146e565b81518110610da157610da1611458565b60200260200101519050849750600089821315158a8513151514158015610e03575084610dce85846114b1565b610dd8868d6114b1565b610de288876114b1565b610dec9190611481565b610df69190611516565b610e0091906114d8565b8b125b90508015610e0f579515955b5050505050806002610e21919061146e565b9050610d09565b50979650505050505050565b610e3c61108d565b6000610e4783610b67565b1515600103610e655760018351610e5e91906114b1565b9050610e69565b5081515b60008060005b83811015610ef957858181518110610e8957610e89611458565b6020026020010151600060028110610ea357610ea3611458565b6020020151610eb290846114d8565b9250858181518110610ec657610ec6611458565b6020026020010151600160028110610ee057610ee0611458565b6020020151610eef90836114d8565b9150600101610e6f565b506000610f068484611516565b90506000610f148584611516565b6040805180820190915292835260208301525095945050505050565b610f38611060565b600060405180604001604052808486600060028110610f5957610f59611458565b6020020151610f6891906114b1565b8152602001848660016020020151610f8091906114b1565b8152509050600060405180604001604052808587600060028110610fa657610fa6611458565b6020020151610fb591906114d8565b8152602001858760016020020151610fcd91906114d8565b9052604080518082019091529283526020830152509392505050565b6000600382111561104a5750806000611003600283611544565b61100e90600161146e565b90505b81811015611044579050806002816110298186611544565b611033919061146e565b61103d9190611544565b9050611011565b50919050565b811561105857506001919050565b506000919050565b60405180604001604052806002905b61107761108d565b81526020019060019003908161106f5790505090565b60405180604001604052806002906020820280368337509192915050565b634e487b7160e01b600052604160045260246000fd5b604051601f8201601f1916810167ffffffffffffffff811182821017156110ea576110ea6110ab565b604052919050565b600082601f83011261110357600080fd5b61110d60406110c1565b80604084018581111561111f57600080fd5b845b81811015611139578035845260209384019301611121565b509095945050505050565b6000806080838503121561115757600080fd5b61116184846110f2565b915061117084604085016110f2565b90509250929050565b600067ffffffffffffffff821115611193576111936110ab565b5060051b60200190565b6000602082840312156111af57600080fd5b813567ffffffffffffffff8111156111c657600080fd5b8201601f810184136111d757600080fd5b80356111ea6111e582611179565b6110c1565b8082825260208201915060208360061b85010192508683111561120c57600080fd5b6020840193505b828410156112385761122587856110f2565b8252602082019150604084019350611213565b9695505050505050565b60006020828403121561125457600080fd5b5035919050565b60808101818360005b60028110156112ab5781518360005b6002811015611292578251825260209283019290910190600101611273565b5050506040929092019160209190910190600101611264565b50505092915050565b60008060c083850312156112c757600080fd5b6112d184846110f2565b915083605f8401126112e257600080fd5b60406112ed816110c1565b8060c08601878111156112ff57600080fd5b8387015b818110156113245761131589826110f2565b84526020909301928401611303565b509497909650945050505050565b6000806060838503121561134557600080fd5b61134f84846110f2565b9150604083013567ffffffffffffffff81111561136b57600080fd5b8301601f8101851361137c57600080fd5b803561138a6111e582611179565b8082825260208201915060208360051b8501019250878311156113ac57600080fd5b6020840193505b828410156113ce5783358252602093840193909101906113b3565b809450505050509250929050565b60408101818360005b60028110156112ab5781518352602092830192909101906001016113e5565b6000806060838503121561141757600080fd5b61142184846110f2565b946040939093013593505050565b634e487b7160e01b600052601160045260246000fd5b818103818111156105bd576105bd61142f565b634e487b7160e01b600052603260045260246000fd5b808201808211156105bd576105bd61142f565b80820260008212600160ff1b8414161561149d5761149d61142f565b81810583148215176105bd576105bd61142f565b81810360008312801583831316838312821617156114d1576114d161142f565b5092915050565b80820182811260008312801582168215821617156114f8576114f861142f565b505092915050565b634e487b7160e01b600052601260045260246000fd5b60008261152557611525611500565b600160ff1b82146000198414161561153f5761153f61142f565b500590565b60008261155357611553611500565b500490565b80820281158282048414176105bd576105bd61142f565b60008261157e5761157e611500565b500690565b60006020828403121561159557600080fd5b505191905056fea264697066735822122017f93df9acf8f89b479ce1a4e36307e21cb3c473afc17c840c4e66b9c1377f9464736f6c634300081a0033","linkReferences":{"src/Trigonometry.sol":{"Trigonometry":[{"start":2208,"length":20},{"start":2375,"length":20}]}}},"methodIdentifiers":{"area(int256[2][])":"26d6adf1","bearingFromAzimuthalEquidistantProjectedPoints(uint256[2],uint256[2])":"1a50fe5e","boundingBox(int256[2][])":"4256e4e4","boundingBoxBuffer(int256[2],int256)":"fe2a1a67","centroid(int256[2][])":"f9887d5a","cosDegrees(uint256)":"53f09688","cosNanodegrees(uint256)":"4468e9f0","degreesToNanoradians(uint256)":"33e6adf7","distance(int256[2],int256[2])":"a297e9c6","distanceBetweenAzimuthalEquidistantProjectedPoints(uint256[2],uint256[2])":"033e0a94","earthNanodegreesToNanometers(uint256)":"883b361d","earthNanoradiansToNanometers(uint256)":"b0293635","earthRadius()":"6be8b29a","isLine(int256[2][])":"206317c5","isPolygon(int256[2][])":"d818e7c4","length(int256[2][])":"895c8db6","nanodegreesToNanoradians(uint256)":"bfb8fe5a","nanoradiansToDegrees(uint256)":"c1dcf739","perimeter(int256[2][])":"82241cd6","piScaled()":"365bc9ac","pointInBbox(int256[2],int256[2][2])":"df5deb7c","pointInPolygon(int256[2],int256[])":"e16e36d1","sinDegrees(uint256)":"5a31f870","sinNanodegrees(uint256)":"3148cf6b"},"id":25}