{
  "contractName": "Jurisdiction",
  "abi": [
    {
      "inputs": [],
      "stateMutability": "nonpayable",
      "type": "constructor"
    },
    {
      "inputs": [
        {
          "internalType": "uint256",
          "name": "",
          "type": "uint256"
        }
      ],
      "name": "boundaries",
      "outputs": [
        {
          "internalType": "int256",
          "name": "",
          "type": "int256"
        }
      ],
      "stateMutability": "view",
      "type": "function"
    },
    {
      "inputs": [],
      "name": "name",
      "outputs": [
        {
          "internalType": "string",
          "name": "",
          "type": "string"
        }
      ],
      "stateMutability": "view",
      "type": "function"
    },
    {
      "inputs": [],
      "name": "numBoundaryPoints",
      "outputs": [
        {
          "internalType": "uint256",
          "name": "",
          "type": "uint256"
        }
      ],
      "stateMutability": "view",
      "type": "function"
    },
    {
      "inputs": [],
      "name": "owner",
      "outputs": [
        {
          "internalType": "address",
          "name": "",
          "type": "address"
        }
      ],
      "stateMutability": "view",
      "type": "function"
    },
    {
      "inputs": [],
      "name": "tax",
      "outputs": [
        {
          "internalType": "uint256",
          "name": "",
          "type": "uint256"
        }
      ],
      "stateMutability": "view",
      "type": "function"
    },
    {
      "inputs": [],
      "name": "getBalance",
      "outputs": [
        {
          "internalType": "uint256",
          "name": "balance_",
          "type": "uint256"
        }
      ],
      "stateMutability": "view",
      "type": "function"
    },
    {
      "inputs": [
        {
          "internalType": "int256[]",
          "name": "_boundaries",
          "type": "int256[]"
        }
      ],
      "name": "updateBoundaries",
      "outputs": [],
      "stateMutability": "nonpayable",
      "type": "function"
    },
    {
      "inputs": [
        {
          "internalType": "uint256",
          "name": "_newTaxRate",
          "type": "uint256"
        }
      ],
      "name": "updateTaxRate",
      "outputs": [],
      "stateMutability": "nonpayable",
      "type": "function"
    },
    {
      "inputs": [
        {
          "internalType": "string",
          "name": "_newName",
          "type": "string"
        }
      ],
      "name": "updateJurisdictionName",
      "outputs": [],
      "stateMutability": "nonpayable",
      "type": "function"
    },
    {
      "inputs": [
        {
          "internalType": "address",
          "name": "_newOwner",
          "type": "address"
        }
      ],
      "name": "transferOwnership",
      "outputs": [],
      "stateMutability": "nonpayable",
      "type": "function"
    }
  ],
  "bytecode": "0x608060405234801561001057600080fd5b50336000806101000a81548173ffffffffffffffffffffffffffffffffffffffff021916908373ffffffffffffffffffffffffffffffffffffffff160217905550610cb0806100606000396000f3fe608060405234801561001057600080fd5b506004361061009e5760003560e01c80638da5cb5b116100665780638da5cb5b1461013557806399c8d55614610153578063ae61612f14610171578063c9fd1e34146101a1578063f2fde38b146101bd5761009e565b806306fdde03146100a357806312065fe0146100c157806317fdcc8e146100df578063744fa256146100fb57806379456bdb14610119575b600080fd5b6100ab6101d9565b6040516100b89190610a06565b60405180910390f35b6100c9610267565b6040516100d69190610a48565b60405180910390f35b6100f960048036038101906100f49190610901565b61026f565b005b610103610329565b6040516101109190610a48565b60405180910390f35b610133600480360381019061012e919061087f565b61032f565b005b61013d610401565b60405161014a91906109d0565b60405180910390f35b61015b610425565b6040516101689190610a48565b60405180910390f35b61018b60048036038101906101869190610901565b61042b565b60405161019891906109eb565b60405180910390f35b6101bb60048036038101906101b691906108c0565b61044f565b005b6101d760048036038101906101d29190610856565b610519565b005b600380546101e690610b94565b80601f016020809104026020016040519081016040528092919081815260200182805461021290610b94565b801561025f5780601f106102345761010080835404028352916020019161025f565b820191906000526020600020905b81548152906001019060200180831161024257829003601f168201915b505050505081565b600047905090565b60008054906101000a900473ffffffffffffffffffffffffffffffffffffffff1660008054906101000a900473ffffffffffffffffffffffffffffffffffffffff1673ffffffffffffffffffffffffffffffffffffffff163373ffffffffffffffffffffffffffffffffffffffff161461031e576040517f08c379a000000000000000000000000000000000000000000000000000000000815260040161031590610a28565b60405180910390fd5b816004819055505050565b60025481565b60008054906101000a900473ffffffffffffffffffffffffffffffffffffffff1660008054906101000a900473ffffffffffffffffffffffffffffffffffffffff1673ffffffffffffffffffffffffffffffffffffffff163373ffffffffffffffffffffffffffffffffffffffff16146103de576040517f08c379a00000000000000000000000000000000000000000000000000000000081526004016103d590610a28565b60405180910390fd5b81600190805190602001906103f492919061060c565b5081516002819055505050565b60008054906101000a900473ffffffffffffffffffffffffffffffffffffffff1681565b60045481565b6001818154811061043b57600080fd5b906000526020600020016000915090505481565b60008054906101000a900473ffffffffffffffffffffffffffffffffffffffff1660008054906101000a900473ffffffffffffffffffffffffffffffffffffffff1673ffffffffffffffffffffffffffffffffffffffff163373ffffffffffffffffffffffffffffffffffffffff16146104fe576040517f08c379a00000000000000000000000000000000000000000000000000000000081526004016104f590610a28565b60405180910390fd5b8160039080519060200190610514929190610659565b505050565b60008054906101000a900473ffffffffffffffffffffffffffffffffffffffff1660008054906101000a900473ffffffffffffffffffffffffffffffffffffffff1673ffffffffffffffffffffffffffffffffffffffff163373ffffffffffffffffffffffffffffffffffffffff16146105c8576040517f08c379a00000000000000000000000000000000000000000000000000000000081526004016105bf90610a28565b60405180910390fd5b816000806101000a81548173ffffffffffffffffffffffffffffffffffffffff021916908373ffffffffffffffffffffffffffffffffffffffff1602179055505050565b828054828255906000526020600020908101928215610648579160200282015b8281111561064757825182559160200191906001019061062c565b5b50905061065591906106df565b5090565b82805461066590610b94565b90600052602060002090601f01602090048101928261068757600085556106ce565b82601f106106a057805160ff19168380011785556106ce565b828001600101855582156106ce579182015b828111156106cd5782518255916020019190600101906106b2565b5b5090506106db91906106fc565b5090565b5b808211156106f85760008160009055506001016106e0565b5090565b5b808211156107155760008160009055506001016106fd565b5090565b600061072c61072784610a94565b610a63565b9050808382526020820190508285602086028201111561074b57600080fd5b60005b8581101561077b57816107618882610802565b84526020840193506020830192505060018101905061074e565b5050509392505050565b600061079861079384610ac0565b610a63565b9050828152602081018484840111156107b057600080fd5b6107bb848285610b52565b509392505050565b6000813590506107d281610c35565b92915050565b600082601f8301126107e957600080fd5b81356107f9848260208601610719565b91505092915050565b60008135905061081181610c4c565b92915050565b600082601f83011261082857600080fd5b8135610838848260208601610785565b91505092915050565b60008135905061085081610c63565b92915050565b60006020828403121561086857600080fd5b6000610876848285016107c3565b91505092915050565b60006020828403121561089157600080fd5b600082013567ffffffffffffffff8111156108ab57600080fd5b6108b7848285016107d8565b91505092915050565b6000602082840312156108d257600080fd5b600082013567ffffffffffffffff8111156108ec57600080fd5b6108f884828501610817565b91505092915050565b60006020828403121561091357600080fd5b600061092184828501610841565b91505092915050565b61093381610b0c565b82525050565b61094281610b1e565b82525050565b600061095382610af0565b61095d8185610afb565b935061096d818560208601610b61565b61097681610c24565b840191505092915050565b600061098e601f83610afb565b91507f536f7272792c206f776e6572206d7573742063616c6c2066756e6374696f6e006000830152602082019050919050565b6109ca81610b48565b82525050565b60006020820190506109e5600083018461092a565b92915050565b6000602082019050610a006000830184610939565b92915050565b60006020820190508181036000830152610a208184610948565b905092915050565b60006020820190508181036000830152610a4181610981565b9050919050565b6000602082019050610a5d60008301846109c1565b92915050565b6000604051905081810181811067ffffffffffffffff82111715610a8a57610a89610bf5565b5b8060405250919050565b600067ffffffffffffffff821115610aaf57610aae610bf5565b5b602082029050602081019050919050565b600067ffffffffffffffff821115610adb57610ada610bf5565b5b601f19601f8301169050602081019050919050565b600081519050919050565b600082825260208201905092915050565b6000610b1782610b28565b9050919050565b6000819050919050565b600073ffffffffffffffffffffffffffffffffffffffff82169050919050565b6000819050919050565b82818337600083830152505050565b60005b83811015610b7f578082015181840152602081019050610b64565b83811115610b8e576000848401525b50505050565b60006002820490506001821680610bac57607f821691505b60208210811415610bc057610bbf610bc6565b5b50919050565b7f4e487b7100000000000000000000000000000000000000000000000000000000600052602260045260246000fd5b7f4e487b7100000000000000000000000000000000000000000000000000000000600052604160045260246000fd5b6000601f19601f8301169050919050565b610c3e81610b0c565b8114610c4957600080fd5b50565b610c5581610b1e565b8114610c6057600080fd5b50565b610c6c81610b48565b8114610c7757600080fd5b5056fea2646970667358221220569701b1c71b1f371d03a972242cbf4c3d88868959f49ad7799de0dfb7a4bea864736f6c63430008000033",
  "immutableReferences": {},
  "source": "// A demo contract showcasing a possible application built with Spatial.sol\n\n// SPDX-License-Identifier: APACHE OR MIT\npragma solidity ^0.8.0;\n\n\ncontract Jurisdiction {\n\n    address public owner; // likely a jurisdiction's DAO contract address ...\n    int256[] public boundaries;\n    uint256 public numBoundaryPoints;\n    string public name;\n    uint256 public tax; // donation rate\n\n    /*\n    @param _boundaries: An array of ints representing coordinates of boundary\n      vertices in nanodegrees (decimal degrees * 10**9)\n\n    */\n\n    constructor () {\n\n        owner = msg.sender;\n\n        // uint l = _boundaries.length;\n\n        // // Check to make sure _boundaries array is the right length\n        // require(l % 2 == 0,\n        //     \"Please pass in an even-length boundaries array of [lon1, lat1, lon2, lat2, ... , lonN, latN]\");\n\n        // numBoundaryPoints = l;\n        // boundaries = _boundaries;\n        // name = _name;\n        // tax = _tax;\n    }\n\n    modifier owned (address _account) {\n        require (msg.sender == owner, \"Sorry, owner must call function\");\n        _;\n    }\n\n    function getBalance () public view returns (uint256 balance_) {\n        return address(this).balance;\n    }\n\n    function updateBoundaries (int256[] memory _boundaries) public owned(owner) {\n      boundaries = _boundaries;\n\n      numBoundaryPoints = _boundaries.length;\n    }\n\n    function updateTaxRate (uint256 _newTaxRate) public owned(owner) {\n        tax = _newTaxRate;\n    }\n\n    function updateJurisdictionName (string memory _newName) public owned(owner)  {\n        name = _newName;\n    }\n\n    function transferOwnership (address _newOwner) public owned(owner)  {\n        owner = _newOwner;\n    }\n\n}\n\n",
  "sourcePath": "/home/j-mars/astralprotocol/spatial-sol/contracts/Jurisdiction.sol",
  "compiler": {
    "name": "solc",
    "version": "0.8.0+commit.c7dfd78e.Emscripten.clang"
  },
  "schemaVersion": "3.3.3",
  "updatedAt": "2021-01-18T19:06:08.082Z",
  "devdoc": {
    "kind": "dev",
    "methods": {},
    "version": 1
  },
  "userdoc": {
    "kind": "user",
    "methods": {},
    "version": 1
  }
}