{
  "contractName": "LocationAware",
  "abi": [
    {
      "inputs": [],
      "stateMutability": "nonpayable",
      "type": "constructor"
    },
    {
      "inputs": [
        {
          "internalType": "uint256",
          "name": "",
          "type": "uint256"
        }
      ],
      "name": "jurisdictions",
      "outputs": [
        {
          "internalType": "address",
          "name": "",
          "type": "address"
        }
      ],
      "stateMutability": "view",
      "type": "function"
    },
    {
      "inputs": [],
      "name": "owner",
      "outputs": [
        {
          "internalType": "address",
          "name": "",
          "type": "address"
        }
      ],
      "stateMutability": "view",
      "type": "function"
    },
    {
      "inputs": [
        {
          "internalType": "address",
          "name": "",
          "type": "address"
        }
      ],
      "name": "subscribedToJurisdiction",
      "outputs": [
        {
          "internalType": "bool",
          "name": "",
          "type": "bool"
        }
      ],
      "stateMutability": "view",
      "type": "function"
    },
    {
      "inputs": [],
      "name": "fund",
      "outputs": [],
      "stateMutability": "payable",
      "type": "function"
    },
    {
      "inputs": [],
      "name": "getBalance",
      "outputs": [
        {
          "internalType": "uint256",
          "name": "balance_",
          "type": "uint256"
        }
      ],
      "stateMutability": "view",
      "type": "function"
    },
    {
      "inputs": [
        {
          "internalType": "address",
          "name": "_jurisdiction",
          "type": "address"
        }
      ],
      "name": "subscribeToJurisdiction",
      "outputs": [],
      "stateMutability": "nonpayable",
      "type": "function"
    },
    {
      "inputs": [
        {
          "internalType": "address",
          "name": "_jurisdiction",
          "type": "address"
        }
      ],
      "name": "unsubscribeFromJurisdiction",
      "outputs": [],
      "stateMutability": "nonpayable",
      "type": "function"
    },
    {
      "inputs": [
        {
          "internalType": "address payable",
          "name": "_to",
          "type": "address"
        },
        {
          "internalType": "int256[2]",
          "name": "_locationOfOwner",
          "type": "int256[2]"
        },
        {
          "internalType": "uint256",
          "name": "_value",
          "type": "uint256"
        }
      ],
      "name": "sendWithLocationChecks",
      "outputs": [
        {
          "internalType": "uint256",
          "name": "",
          "type": "uint256"
        }
      ],
      "stateMutability": "nonpayable",
      "type": "function"
    },
    {
      "inputs": [
        {
          "internalType": "int256[2]",
          "name": "_point",
          "type": "int256[2]"
        },
        {
          "internalType": "int256[]",
          "name": "_jurisdictionBoundaries",
          "type": "int256[]"
        }
      ],
      "name": "withinJurisdictionBoundaries",
      "outputs": [
        {
          "internalType": "bool",
          "name": "",
          "type": "bool"
        }
      ],
      "stateMutability": "pure",
      "type": "function"
    }
  ],
  "bytecode": "0x608060405234801561001057600080fd5b50336000806101000a81548173ffffffffffffffffffffffffffffffffffffffff021916908373ffffffffffffffffffffffffffffffffffffffff1602179055506112f1806100606000396000f3fe6080604052600436106100865760003560e01c80633553afcf116100595780633553afcf146101595780637c404697146101825780638da5cb5b146101bf578063b60d4288146101ea578063fcd4fadf146101f457610086565b8063080a34ba1461008b578063104a9ff1146100c857806312065fe0146100f157806329c0ec5f1461011c575b600080fd5b34801561009757600080fd5b506100b260048036038101906100ad9190610ca0565b610231565b6040516100bf9190610f64565b60405180910390f35b3480156100d457600080fd5b506100ef60048036038101906100ea9190610ca0565b610251565b005b3480156100fd57600080fd5b50610106610388565b6040516101139190610f7f565b60405180910390f35b34801561012857600080fd5b50610143600480360381019061013e9190610cc9565b610390565b6040516101509190610f7f565b60405180910390f35b34801561016557600080fd5b50610180600480360381019061017b9190610ca0565b610920565b005b34801561018e57600080fd5b506101a960048036038101906101a49190610d18565b6109f5565b6040516101b69190610f64565b60405180910390f35b3480156101cb57600080fd5b506101d4610a88565b6040516101e19190610f19565b60405180910390f35b6101f2610aac565b005b34801561020057600080fd5b5061021b60048036038101906102169190610dbe565b610aae565b6040516102289190610f19565b60405180910390f35b60016020528060005260406000206000915054906101000a900460ff1681565b60008054906101000a900473ffffffffffffffffffffffffffffffffffffffff1660008054906101000a900473ffffffffffffffffffffffffffffffffffffffff1673ffffffffffffffffffffffffffffffffffffffff168173ffffffffffffffffffffffffffffffffffffffff16146102ca57600080fd5b6002829080600181540180825580915050600190039060005260206000200160009091909190916101000a81548173ffffffffffffffffffffffffffffffffffffffff021916908373ffffffffffffffffffffffffffffffffffffffff16021790555060018060008473ffffffffffffffffffffffffffffffffffffffff1673ffffffffffffffffffffffffffffffffffffffff16815260200190815260200160002060006101000a81548160ff0219169083151502179055505050565b600047905090565b60008060009054906101000a900473ffffffffffffffffffffffffffffffffffffffff1673ffffffffffffffffffffffffffffffffffffffff163373ffffffffffffffffffffffffffffffffffffffff16146103eb57600080fd5b60006002805490509050600081141561044f578473ffffffffffffffffffffffffffffffffffffffff166108fc849081150290604051600060405180830381858888f19350505050158015610444573d6000803e3d6000fd5b506000915050610919565b60005b818110156108cb5760011515600160006002848154811061049c577f4e487b7100000000000000000000000000000000000000000000000000000000600052603260045260246000fd5b9060005260206000200160009054906101000a900473ffffffffffffffffffffffffffffffffffffffff1673ffffffffffffffffffffffffffffffffffffffff1673ffffffffffffffffffffffffffffffffffffffff16815260200190815260200160002060009054906101000a900460ff16151514156108b857600060028281548110610553577f4e487b7100000000000000000000000000000000000000000000000000000000600052603260045260246000fd5b9060005260206000200160009054906101000a900473ffffffffffffffffffffffffffffffffffffffff169050600081905060008173ffffffffffffffffffffffffffffffffffffffff1663744fa2566040518163ffffffff1660e01b815260040160206040518083038186803b1580156105cd57600080fd5b505afa1580156105e1573d6000803e3d6000fd5b505050506040513d601f19601f820116820180604052508101906106059190610de7565b905060008167ffffffffffffffff811115610649577f4e487b7100000000000000000000000000000000000000000000000000000000600052604160045260246000fd5b6040519080825280602002602001820160405280156106775781602001602082028036833780820191505090505b50905060005b82811015610766578373ffffffffffffffffffffffffffffffffffffffff1663ae61612f826040518263ffffffff1660e01b81526004016106be9190610f7f565b60206040518083038186803b1580156106d657600080fd5b505afa1580156106ea573d6000803e3d6000fd5b505050506040513d601f19601f8201168201806040525081019061070e9190610d95565b828281518110610747577f4e487b7100000000000000000000000000000000000000000000000000000000600052603260045260246000fd5b602002602001018181525050808061075e90611172565b91505061067d565b50600115156107758a836109f5565b151514156108b3578973ffffffffffffffffffffffffffffffffffffffff166108fc899081150290604051600060405180830381858888f193505050501580156107c3573d6000803e3d6000fd5b50600060648473ffffffffffffffffffffffffffffffffffffffff166399c8d5566040518163ffffffff1660e01b815260040160206040518083038186803b15801561080e57600080fd5b505afa158015610822573d6000803e3d6000fd5b505050506040513d601f19601f820116820180604052508101906108469190610de7565b8a61085191906110b4565b61085b9190611083565b90508473ffffffffffffffffffffffffffffffffffffffff166108fc829081150290604051600060405180830381858888f193505050501580156108a3573d6000803e3d6000fd5b5080975050505050505050610919565b505050505b80806108c390611172565b915050610452565b508473ffffffffffffffffffffffffffffffffffffffff166108fc849081150290604051600060405180830381858888f19350505050158015610912573d6000803e3d6000fd5b5060009150505b9392505050565b60008054906101000a900473ffffffffffffffffffffffffffffffffffffffff1660008054906101000a900473ffffffffffffffffffffffffffffffffffffffff1673ffffffffffffffffffffffffffffffffffffffff168173ffffffffffffffffffffffffffffffffffffffff161461099957600080fd5b6000600160008473ffffffffffffffffffffffffffffffffffffffff1673ffffffffffffffffffffffffffffffffffffffff16815260200190815260200160002060006101000a81548160ff0219169083151502179055505050565b600073__Spatial_______________________________63e16e36d184846040518363ffffffff1660e01b8152600401610a30929190610f34565b60206040518083038186803b158015610a4857600080fd5b505af4158015610a5c573d6000803e3d6000fd5b505050506040513d601f19601f82011682018060405250810190610a809190610d6c565b905092915050565b60008054906101000a900473ffffffffffffffffffffffffffffffffffffffff1681565b565b60028181548110610abe57600080fd5b906000526020600020016000915054906101000a900473ffffffffffffffffffffffffffffffffffffffff1681565b6000610b00610afb84610fcb565b610f9a565b90508082856020860282011115610b1657600080fd5b60005b85811015610b465781610b2c8882610c4c565b845260208401935060208301925050600181019050610b19565b5050509392505050565b6000610b63610b5e84610ff1565b610f9a565b90508083825260208201905082856020860282011115610b8257600080fd5b60005b85811015610bb25781610b988882610c4c565b845260208401935060208301925050600181019050610b85565b5050509392505050565b600081359050610bcb81611248565b92915050565b600081359050610be08161125f565b92915050565b600082601f830112610bf757600080fd5b6002610c04848285610aed565b91505092915050565b600082601f830112610c1e57600080fd5b8135610c2e848260208601610b50565b91505092915050565b600081519050610c4681611276565b92915050565b600081359050610c5b8161128d565b92915050565b600081519050610c708161128d565b92915050565b600081359050610c85816112a4565b92915050565b600081519050610c9a816112a4565b92915050565b600060208284031215610cb257600080fd5b6000610cc084828501610bbc565b91505092915050565b600080600060808486031215610cde57600080fd5b6000610cec86828701610bd1565b9350506020610cfd86828701610be6565b9250506060610d0e86828701610c76565b9150509250925092565b60008060608385031215610d2b57600080fd5b6000610d3985828601610be6565b925050604083013567ffffffffffffffff811115610d5657600080fd5b610d6285828601610c0d565b9150509250929050565b600060208284031215610d7e57600080fd5b6000610d8c84828501610c37565b91505092915050565b600060208284031215610da757600080fd5b6000610db584828501610c61565b91505092915050565b600060208284031215610dd057600080fd5b6000610dde84828501610c76565b91505092915050565b600060208284031215610df957600080fd5b6000610e0784828501610c8b565b91505092915050565b6000610e1c8383610efb565b60208301905092915050565b610e318161110e565b82525050565b610e4081611037565b610e4a8184611067565b9250610e558261101d565b8060005b83811015610e86578151610e6d8782610e10565b9650610e788361104d565b925050600181019050610e59565b505050505050565b6000610e9982611042565b610ea38185611072565b9350610eae83611027565b8060005b83811015610edf578151610ec68882610e10565b9750610ed18361105a565b925050600181019050610eb2565b5085935050505092915050565b610ef581611132565b82525050565b610f048161113e565b82525050565b610f1381611168565b82525050565b6000602082019050610f2e6000830184610e28565b92915050565b6000606082019050610f496000830185610e37565b8181036040830152610f5b8184610e8e565b90509392505050565b6000602082019050610f796000830184610eec565b92915050565b6000602082019050610f946000830184610f0a565b92915050565b6000604051905081810181811067ffffffffffffffff82111715610fc157610fc0611219565b5b8060405250919050565b600067ffffffffffffffff821115610fe657610fe5611219565b5b602082029050919050565b600067ffffffffffffffff82111561100c5761100b611219565b5b602082029050602081019050919050565b6000819050919050565b6000819050602082019050919050565b600060029050919050565b600081519050919050565b6000602082019050919050565b6000602082019050919050565b600081905092915050565b600082825260208201905092915050565b600061108e82611168565b915061109983611168565b9250826110a9576110a86111ea565b5b828204905092915050565b60006110bf82611168565b91506110ca83611168565b9250817fffffffffffffffffffffffffffffffffffffffffffffffffffffffffffffffff0483118215151615611103576111026111bb565b5b828202905092915050565b600061111982611148565b9050919050565b600061112b82611148565b9050919050565b60008115159050919050565b6000819050919050565b600073ffffffffffffffffffffffffffffffffffffffff82169050919050565b6000819050919050565b600061117d82611168565b91507fffffffffffffffffffffffffffffffffffffffffffffffffffffffffffffffff8214156111b0576111af6111bb565b5b600182019050919050565b7f4e487b7100000000000000000000000000000000000000000000000000000000600052601160045260246000fd5b7f4e487b7100000000000000000000000000000000000000000000000000000000600052601260045260246000fd5b7f4e487b7100000000000000000000000000000000000000000000000000000000600052604160045260246000fd5b6112518161110e565b811461125c57600080fd5b50565b61126881611120565b811461127357600080fd5b50565b61127f81611132565b811461128a57600080fd5b50565b6112968161113e565b81146112a157600080fd5b50565b6112ad81611168565b81146112b857600080fd5b5056fea26469706673582212201f9ed835b97c008c14a0795c1c60cdb254229c15745ee551f4f66514719cc77964736f6c63430008000033",
  "immutableReferences": {},
  "source": "// SPDX-License-Identifier: APACHE OR MIT\npragma solidity ^0.8.0;\n\nimport \"./Jurisdiction.sol\";\nimport \"./Spatial.sol\";\n\ncontract LocationAware {\n\n    address public owner;\n    mapping(address => bool) public subscribedToJurisdiction; // to test within for each transaction\n    address[] public jurisdictions;\n\n    constructor () {\n        owner = msg.sender;\n    }\n\n    modifier owned(address _address) {\n      require (_address == owner);\n      _;\n    }\n\n    // do we need this? Maybe owner includes funds with each .send() invocation\n    function fund () external payable {\n        // require(_value == msg.value);\n    }\n\n    function getBalance () public view returns (uint256 balance_) {\n        return address(this).balance;\n    }\n\n\n    function subscribeToJurisdiction (address _jurisdiction) public owned(owner) {\n        jurisdictions.push(_jurisdiction);\n        subscribedToJurisdiction[_jurisdiction] = true;\n    }\n\n    function unsubscribeFromJurisdiction (address _jurisdiction) public owned(owner) {\n        subscribedToJurisdiction[_jurisdiction] = false;\n    }\n\n    function sendWithLocationChecks (\n      address payable _to,\n      int256[2] memory _locationOfOwner,\n      uint256 _value)\n      public returns (uint256)\n      {\n\n        require(msg.sender == owner);\n\n        uint256 numJurisdictionsToCheck = jurisdictions.length;\n\n        if (numJurisdictionsToCheck == 0) {\n            _to.transfer(_value);\n            return 0;\n            // return \"You're not subscribed to any jurisdictions.\";\n\n        }\n\n        for (uint256 i = 0; i < numJurisdictionsToCheck; i++) {\n\n            if (subscribedToJurisdiction[jurisdictions[i]] == true) {\n                address payable jurisdictionAddress = payable(address(uint160(jurisdictions[i])));\n\n                Jurisdiction jurisdiction = Jurisdiction(jurisdictionAddress);\n                uint256 jurisdictionBoundariesLength = jurisdiction.numBoundaryPoints();\n\n                int256[] memory jurisdictionBoundary = new int256[](jurisdictionBoundariesLength);\n\n                for (uint256 j = 0; j < jurisdictionBoundariesLength; j++) {\n                    jurisdictionBoundary[j] = jurisdiction.boundaries(j);\n                }\n\n                if (withinJurisdictionBoundaries(_locationOfOwner, jurisdictionBoundary) == true) {\n                    // transmit value to sender\n\n                    _to.transfer(_value);\n\n                    uint256 taxToPay = _value * jurisdiction.tax() / 100;\n                    // transmit tax to jurisdiction\n                    jurisdictionAddress.transfer(taxToPay);\n\n                    return taxToPay;\n                }\n            }\n            }\n\n        // potential security flaw if somehow the for loop transmitted but didn't return ....\n        _to.transfer(_value);\n\n        return 0;\n\n    }\n\n    function withinJurisdictionBoundaries (int256[2] memory _point, int256[] memory _jurisdictionBoundaries) public pure returns (bool) {\n        return Spatial.pointInPolygon(_point, _jurisdictionBoundaries);\n    }\n\n\n}\n",
  "sourcePath": "/home/j-mars/astralprotocol/spatial-sol/contracts/LocationAware.sol",
  "compiler": {
    "name": "solc",
    "version": "0.8.0+commit.c7dfd78e.Emscripten.clang"
  },
  "schemaVersion": "3.3.3",
  "updatedAt": "2021-01-18T19:06:08.090Z",
  "devdoc": {
    "kind": "dev",
    "methods": {},
    "version": 1
  },
  "userdoc": {
    "kind": "user",
    "methods": {},
    "version": 1
  }
}